:020000040000FA
:100000000A128A11FC2FF2008312031307147208DC
:10001000860007150730F1007D30F000F00B0E2848
:10002000F10B0E28831203130711080002300A1285
:100030008A1529240A128A1138300A128A152924AD
:100040000A128A1108300A128A1529240A128A1102
:1000500000300A128A1529240A128A110C300A1259
:100060008A1529240A128A1100300A128A152924B5
:100070000A128A1106300A128A1529240A128A11D4
:10008000080083120313C1004108031948284928B6
:100090005D28BC1F4C284D285D283909C3003A094A
:1000A000C4003B09C5003C09C600C30A0319C40AC1
:1000B0000319C50A0319C60A65283C08C6003B088F
:1000C000C5003A08C4003908C3003C083B043A04A0
:1000D0003904031D6C286D2876280030BC000030E0
:1000E000BB000030BA000030B900FC289630BD00DB
:1000F0003D08C20088280130BD003D08C20701301C
:100100000310C60CC50CC40CC30CFF3E031D802895
:10011000FE304605031D8D288E287B28AA28013035
:10012000BD003D08C2070130C3070030031801308D
:10013000C407003003180130C50700300318013030
:10014000C60701300310C60CC50CC40CC30CFF3E1F
:10015000031DA228FF304605031DAF28B0288F28B5
:10016000BC280130C2020130BD000310C30DC40D14
:10017000C50DC60DBD0BB528C51BBF28C028C62898
:10018000023042020318C528C628B1284218C928DF
:10019000CA28D228FF30C305FF30C4057F30C5050B
:1001A000FF30C6050310C20C4208BD00BE01BF01EE
:1001B000C00118300310BD0DBE0DBF0DC00DFF3EB8
:1001C000031DDA283D08C3043E08C4043F08C504E3
:1001D0004008C60441080319EE28EF28F428BC1F84
:1001E000F228F328F428C6174608BC004508BB00CF
:1001F0004408BA004308B9000800831603138601B7
:10020000870188018312031308140A128A11162029
:100210000A128A110A128A1513240A128A110A1262
:100220008A151C240A128A1104300A128A15AC2479
:100230000A128A11710883160313A5007008A4001E
:100240003B3083120313CA00A030C9000030C8003D
:100250000030C70083160313240883120313B90068
:1002600083160313250883120313BA000030BA1B48
:10027000FF30BB00BC0001300A128A1141200A1273
:100280008A11831203133C08CE003B08CD003A08C4
:10029000CC003908CB000A128A119B240A128A1159
:1002A000831203134A0883160313A3008312031354
:1002B000490883160313A200831203134808831608
:1002C0000313A10083120313470883160313A0002E
:1002D000423083120313CA00C830C9000030C8007E
:1002E0000030C70083160313230883120313CE00C4
:1002F00083160313220883120313CD0083160313FE
:10030000210883120313CC008316031320088312E1
:100310000313CB000A128A119B240A128A1183123A
:1003200003134A0883160313A90083120313490811
:1003300083160313A80083120313480883160313BC
:10034000A70083120313470883160313A600433044
:10035000F3004830F2000030F1000030F0002908CE
:10036000F7002808F6002708F5002608F4000A120E
:100370008A15A5260A128A110318BF29C029DF2968
:10038000831603132908F3002808F2002708F10058
:100390002608F0004330F7007A30F6000030F50010
:1003A0000030F4000A128A15A5260A128A110318D1
:1003B000DA29DB29DF29831203130814E2298312C7
:1003C0000313081083160313290883120313E40090
:1003D00083160313280883120313E3008316031301
:1003E000270883120313E2008316031326088312DF
:1003F0000313E1000A128A1547270A128A110F29EE
:100400000A128A1100287308803983120313A0008E
:100410002008F8007308A0002007A1002108FA00B6
:10042000F21F132A142A152A7A147A080319192A92
:100430001A2A2A2A7A0A031D1E2A1F2A272A00306E
:10044000F3000030F2000030F1000030F000F2174D
:10045000F301322A0030F3000030F2000030F100E6
:100460000030F00077088039A0002008F9007908F2
:10047000780603193C2A3D2A3E2A78177708A000FF
:100480002007A1002108F900F61F472A482A492A17
:100490007914790803194D2A4E2A5E2A790A031D18
:1004A000522A532A5B2A0030F7000030F600003051
:1004B000F5000030F400F617F701662A0030F70067
:1004C0000030F6000030F5000030F4007A087902C0
:1004D00003186B2A6C2AB02A781F6F2A702A742A94
:1004E0008030A0002008F8067A08A0002008FB0051
:1004F0007908A0002008FA007B08A0002008F90075
:100500007008A0002008FB007408A0002008F0007C
:100510007B08A0002008F4007108A0002008FB0060
:100520007508A0002008F1007B08A0002008F50055
:100530007208A0002008FB007608A0002008F20046
:100540007B08A0002008F6007308A0002008FB002C
:100550007708A0002008F3007B08A0002008F7001F
:10056000FB017908A000A1012108A3007A0820025C
:10057000A200031CA3032308803AFF0080307F02FF
:10058000031DC42A1A302202031CC72AC82A092BB9
:100590007308720471047004031DCF2AD12A01303C
:1005A000D22A003083120313A0002008FB00003081
:1005B000F3000030F2000030F1000030F000790864
:1005C000A0002008FA000F2B7B1CE72AE82AF32A58
:1005D0007B0883120313A0000310200C0138A10034
:1005E0002108FB00F52A0310FB0C701CF82AF92ADD
:1005F000FA2AFB17013083120313A000730DF30CCA
:10060000F20CF10CF00CA00BFE2A0130A000200827
:10061000FA0779087A02031C0E2B0F2BE42A781BA9
:10062000122B132B622B7A08031D172B182B212B4F
:100630000030F3000030F2000030F1000030F00034
:100640009A2C7408F007750803110318013E03196A
:100650002A2BF107760803110318013E0319312BE9
:10066000F207770803110318013E0319382BF3072B
:10067000731C3B2B3C2B1A2C7B1C3F2B402B4B2BF6
:100680007B0883120313A0000310200C0138A10083
:100690002108FB004D2B0310FB0C701C502B512B21
:1006A000522BFB17013083120313A000730DF30CC0
:1006B000F20CF10CF00CA00B562B0130A00020081E
:1006C000FA071A2C7308803AFF007708803A7F02F5
:1006D000031D742B76087202031D742B75087102BA
:1006E000031D742B740870020318772B782BD22B00
:1006F000FF3083120313A000FF30A100FF30A200DF
:10070000FF30A3007408A4007508A5007608A600B1
:100710007708A7007008A4027108031C710F912BC1
:10072000922BA5027208031C720F972B982BA6021E
:100730007308031C730F9D2B9E2BA7022408A00790
:1007400025080318250FA52BA62BA107260803189B
:10075000260FAB2BAC2BA20727080318270AA307E9
:100760002308F3002208F2002108F1002008F0001D
:100770008030A0002008F806FB09FB0A7B08031D57
:10078000C22BC32BE02B0130F007003003180130DF
:10079000F107003003180130F20700300318013070
:1007A000F307E02B7408F0027508031C750FF102C3
:1007B0007608031C760FF2027708031C770FF3020A
:1007C0007308720471047004031DE72BE82B162CC8
:1007D0007B08031DEC2BED2B162C0030F3000030B2
:1007E000F2000030F1000030F0009A2C013083124A
:1007F0000313A0000310F00DF10DF20DF30DA00B8B
:10080000FA2BFB1F042C052C062C70147B1C092CC6
:100810000A2C0D2C0314FB0D0F2C0310FB0D7A0872
:100820000319132C142C162C0130FA02F21F192C68
:100830001A2CF62BF901FB1F1E2C1F2C2D2C7B08CC
:100840007F390319242C252C282CF901F90A2D2C89
:10085000701C2B2C2C2C2D2C252C79080319312CB9
:10086000322C682C0130F007003003180130F107FA
:10087000003003180130F207003003180130F3078D
:10088000731C432C442C682C700883120313A000A3
:100890007108A1007208A2007308A3000130A4002F
:1008A000230DA30CA20CA10CA00CA40B502C23080C
:1008B000F3002208F2002108F1002008F0007A0A73
:1008C0000319632C642C682C0130A0002008FA075F
:1008D0007A0A03196C2C6D2C722C7A08031D712C6A
:1008E000722C802C0030F3000030F2000030F10058
:1008F0000030F0007A08031D7E2C7F2C802CF8013C
:100900007A1C832C842C862CF2178C2C7F3083123B
:100910000313A0002008F2057A0883120313A00035
:100920000310200CA1002108F300F81F982C992C2B
:100930009A2CF3170800831203134A088039CF005A
:100940004F08D4004A08CF004F07D0005008DA0003
:10095000C91FAB2CAC2CAD2C5A145A080319B12C5E
:10096000B22CC12C5A0A031DB62CB72CBF2C003058
:10097000CA000030C9000030C8000030C700C917E5
:10098000C92C0030CA000030C9000030C800003057
:10099000C7004E088039CF004F08D4064E08CF005C
:1009A0004F07D0005008D900CD1FD72CD82CD92CF8
:1009B000591459080319DD2CDE2CED2C590A031D9E
:1009C000E22CE32CEB2C0030CE000030CD000030C8
:1009D000CC000030CB00CD17F52C0030CE0000301D
:1009E000CD000030CC000030CB0059080319F92CA1
:1009F000FA2CFF2C5A08031DFE2CFF2C082D00306A
:100A0000CA000030C9000030C8000030C700FB2F0A
:100A10004708CF004F08F0004D080A128A158524B8
:100A20000A128A11710883120313E0007008DF00B4
:100A30005F08CF00D001D101D2015208D80051087F
:100A4000D7005008D6004F08D5006008CF00D0016D
:100A5000D101D2015208DE005108DD005008DC004F
:100A60004F08DB004808CF004F08F0004C080A127E
:100A70008A1585240A128A11710883120313E00073
:100A80007008DF005F08CF00D001D101D2014F080C
:100A9000D507500803110318013E0319502DD6073E
:100AA000510803110318013E0319572DD7075208A7
:100AB00003110318013E03195E2DD8076008CF000B
:100AC000D001D101D2014F08DB07500803110318F0
:100AD000013E03196C2DDC07510803110318013E78
:100AE0000319732DDD07520803110318013E031982
:100AF0007A2DDE074908CF004F08F0004B080A1294
:100B00008A1585240A128A11710883120313E000E2
:100B10007008DF005F08CF00D001D101D2014F087B
:100B2000D507500803110318013E0319982DD60765
:100B3000510803110318013E03199F2DD7075208CE
:100B400003110318013E0319A62DD8076008CF0032
:100B5000D001D101D2014F08DB075008031103185F
:100B6000013E0319B42DDC07510803110318013E9F
:100B70000319BB2DDD07520803110318013E0319A9
:100B8000C22DDE070830CF000310D50DD60DD70DCE
:100B9000D80DCF0BC42D4808CF004F08F0004B08EC
:100BA0000A128A1585240A128A1171088312031306
:100BB000E0007008DF005F08CF006008D000D101BE
:100BC000D2014F08D507500803110318013E03193D
:100BD000EA2DD607510803110318013E0319F12D20
:100BE000D707520803110318013E0319F82DD8073F
:100BF0004708CF004F08F0004C080A128A158524D8
:100C00000A128A11710883120313E0007008DF00D2
:100C10005F08CF006008D000D101D2014F08D5078E
:100C2000500803110318013E0319172ED607510867
:100C300003110318013E03191E2ED7075208031192
:100C40000318013E0319252ED8070830CF000310E2
:100C5000D50DD60DD70DD80DCF0B272E4708CF00B9
:100C60004F08F0004B080A128A1585240A128A11CF
:100C7000710883120313E0007008DF005F08CF00E3
:100C80006008D000D101D2014F08D50750080311E8
:100C90000318013E03194D2ED607510803110318FE
:100CA000013E0319542ED707520803110318013EC1
:100CB00003195B2ED8074808CF004F08F0004D08F5
:100CC0000A128A1585240A128A11710883120313E5
:100CD000E0007008DF005F08CF006008D000D1019D
:100CE000D2014F08DB07500803110318013E031916
:100CF0007A2EDC07510803110318013E0319812ED7
:100D0000DD07520803110318013E0319882EDE0780
:100D10004908CF004F08F0004C080A128A158524B4
:100D20000A128A11710883120313E0007008DF00B1
:100D30005F08CF006008D000D101D2014F08DB0767
:100D4000500803110318013E0319A72EDC075108B0
:100D500003110318013E0319AE2EDD0752080311DB
:100D60000318013E0319B52EDE074908CF004F08CE
:100D7000F0004D080A128A1585240A128A1171089A
:100D800083120313E0007008DF005F08CF006008E3
:100D9000D000D101D20108300310CF0DD00DD10DFC
:100DA000D20DFF3E031DCC2E4F08DB075008031168
:100DB0000318013E0319DD2EDC0751080311031847
:100DC000013E0319E42EDD07520803110318013E0A
:100DD0000319EB2EDE075508CF005608D000570840
:100DE000D1005808D20018300310D20CD10CD00C0E
:100DF000CF0CFF3E031DF42E4F08DB0750080311F4
:100E00000318013E0319052FDC07510803110318CD
:100E1000013E03190C2FDD07520803110318013E90
:100E20000319132FDE070830CF000310D50DD60DA0
:100E3000D70DD80DCF0B152F5A085907CF00D00169
:100E4000D00D4F08823EDF0050080318013EFF3EE0
:100E5000E000472F0130CF000310DB0DDC0DDD0D6E
:100E6000DE0DCF0B2C2FD81F362F372F382F5B14CA
:100E70000130CF000310D50DD60DD70DD80DCF0BF7
:100E80003A2FFF30DF070318E00AFF30E007DD1FCD
:100E90004A2F4B2F2A2FD901D81F4F2F502F6C2F9D
:100EA000FF305505CF00FF305605D000FF30570505
:100EB000D1007F305805D2005208510450044F042D
:100EC0000319632F642F672FD901D90A6C2F5B1C7C
:100ED0006A2F6B2F6C2F642F59080319702F712FF5
:100EE000A22F0130DB07003003180130DC0700308F
:100EF00003180130DD07003003180130DE075E1CE7
:100F0000822F832FA22F5B08CF005C08D0005D08E2
:100F1000D1005E08D2000130D300520DD20CD10CAA
:100F2000D00CCF0CD30B8D2F5208DE005108DD0002
:100F30005008DC004F08DB000130DF070318E00A2F
:100F40000030E0076008803AFF0080307F02031D18
:100F5000AB2FFF305F02031CAE2FAF2FBA2F7F30B5
:100F600083120313DE008030DD000030DC0000302F
:100F7000DB00EF2F831203136008803AFF008030FC
:100F80007F02031DC52F01305F020318C82FC92F30
:100F9000D52F003083120313DE000030DD00003057
:100FA000DC000030DB00D401EF2F831203135F0855
:100FB000CF004F08DA00FF30DB05FF30DC057F3063
:100FC000DD050030DE055A1CE62FE72FE82FDD1780
:100FD0005A08CF0003104F0CD0005008DE00540810
:100FE000CF004F08DE045E08CA005D08C9005C0837
:100FF000C8005B08C700080083010A128A11FD2897
:101826004130831203139F00C030831603139F00B9
:10183600080000300A128A1529240A128A15013076
:101846000A128A1529240A128A150800F200831240
:10185600031307107208860007150730F1007D3064
:10186600F000F00B342CF10B342C83120313071108
:101876000800803083120313AB062F08F3002E08EE
:10188600F2002D08F1002C08F0002B08F7002A08BA
:10189600F6002908F5002808F4000A128A11032226
:1018A6000A128A15730883120313AB007208AA0082
:1018B6007108A9007008A8000800F401F501701C61
:1018C600652C662C6C2C7208F4070318F50A73084D
:1018D600F50701300310F20DF30DFF3E031D6D2CCD
:1018E60001300310F10CF00CFF3E031D742C700840
:1018F6007104031D7F2C802C622C7508F10074087E
:10190600F0000800F800F401F5017008F200F30198
:101916007208F6007308F700781C922C932C992C09
:101926007608F4070318F50A7708F507013003105F
:10193600F60DF70DFF3E031D9A2C0310F80C7808E0
:10194600031DA62CA72C8F2C7508F1007408F00037
:101956000800F400C530F2007208831203139F05D5
:101966007408F20002300310F20DFF3E031DB62C80
:101976000310720DF30073089F040730F3007D30E7
:10198600F200F20BC42CF30BC42C831203131F15A5
:101996001F19CE2CCF2CCB2C1E08F1008316031357
:1019A6001E08F0000800F601F31FDA2CDB2CE22CEF
:1019B600F209F309F20A0319F30AF601F60AF11F0E
:1019C600E52CE62CEB2CF009F109F00A0319F10AD3
:1019D600700871040319F02CF12C202DF501F50A7D
:1019E600FF2C01300310F00DF10DFF3E031DF52C09
:1019F6000130F4007408F507F11F022D032DF42CB5
:101A060071087302031D092D70087202031C0C2D48
:101A16000D2D132D7008F2027108031CF303F30257
:101A260001300310F10CF00CFF3E031D142D0130A4
:101A3600F502031D1F2D202D032D76080319242DD5
:101A4600252D2A2DF209F309F20A0319F30A730860
:101A5600F1007208F0000800F601F11F332D342D55
:101A66003B2DF009F109F00A0319F10AF601F60A0D
:101A7600F31F3E2D3F2D482DF209F309F20A0319F3
:101A8600F30A0130F4007408F606F701F80170084D
:101A9600710403194F2D502D872DF501F50A5E2D82
:101AA60001300310F00DF10DFF3E031D542D0130E2
:101AB600F4007408F507F11F612D622D532D0130D6
:101AC6000310F70DF80DFF3E031D632D7108730219
:101AD600031D6F2D70087202031C722D732D7A2D53
:101AE6007008F2027108031CF303F3027714013045
:101AF6000310F10CF00CFF3E031D7B2D0130F502A7
:101B0600031D862D872D622D760803198B2D8C2DAE
:101B1600912DF709F809F70A0319F80A7808F10070
:101B26007708F0000800031083120313320D330DFB
:101B3600B4003408FD007D08031DA22DA32DAC2D95
:101B46000030B3000030B2000030B1000030B00009
:101B5600112E3008B4003108B5003208B60033083B
:101B6600B7001F300310B70CB60CB50CB40CFF3E13
:101B7600031DB52D3408B8003808FC00B217FF3035
:101B8600B005FF30B105FF30B2050030B305963021
:101B9600FD02FD1FCF2DD02DEA2D7D08803A973E00
:101BA6000318D62DD72DD82DA32D01300310B30C35
:101BB600B20CB10CB00CFF3E031DD92D0130B400A0
:101BC6003408FD07031DE82DE92DD82D012E203000
:101BD6007D02031CEF2DF02DFC2DA32D0130B4004A
:101BE6000310B00DB10DB20DB30DB40BF32D0130D2
:101BF600FD027D08031D002E012EF12D7C08031920
:101C0600052E062E112EB009B109B209B309B00A84
:101C16000319B10A0319B20A0319B30A0800831299
:101C260003133A08BE003908BD00BF01C0013E08D3
:101C3600803AFF0080307F02031D232E01303D02D3
:101C46000318262E272E282E682E0A30F000003084
:101C5600F100831203133E08F3003D08F2000A1256
:101C66008A15D6240A128A15710883120313BC003A
:101C76007008BB000A30F0000030F1003E08F300A7
:101C86003D08F2000A128A152F250A128A157108D4
:101C960083120313BE007008BD004008F1003F0820
:101CA600F0000A30F2000030F3000A128A156024B0
:101CB6000A128A15831203133B087007BF003C08FB
:101CC60003183C0A7107C0001A2E8312031340083A
:101CD600803AFF0080307F02031D732E01303F02E1
:101CE6000318762E772E782EA42E0A30F0000030B8
:101CF600F100831203134008F3003F08F2000A12B2
:101D06008A15D6240A128A157008303E0A128A11DC
:101D160003200A128A150A30F0000030F1008312FF
:101D260003134008F3003F08F2000A128A152F2514
:101D36000A128A15710883120313C0007008BF00C7
:101D4600682E080000307005F80000307105F900B3
:101D560080307205FA007F307305FB007B087A0439
:101D660079047804031DB82EB92EC12E0030F30075
:101D76000030F2000030F1000030F0000030740551
:101D8600F80000307505F90080307605FA007F30DE
:101D96007705FB007B087A0479047804031DD42EAA
:101DA600D52EDD2E0030F7000030F6000030F500AD
:101DB6000030F400F31FE02EE12E052F0030F8006E
:101DC6000030F9000030FA008030FB007008F8029D
:101DD6007108031C710FF02EF12EF9027208031C14
:101DE600720FF62EF72EFA027308031C730FFC2EE1
:101DF600FD2EFB027B08F3007A08F2007908F10059
:101E06007808F000F71F082F092F2D2F0030F80053
:101E16000030F9000030FA008030FB007408F80248
:101E26007508031C750F182F192FF9027608031C65
:101E3600760F1E2F1F2FFA027708031C770F242F09
:101E4600252FFB027B08F7007A08F6007908F500D3
:101E56007808F4008030F3068030F70677087302BE
:101E6600031D3F2F76087202031D3F2F750871026E
:101E7600031D3F2F740870020318422F432F452F6E
:101E86000310462F03140800831203136408B300DB
:101E96006308B2006208B1006108B0000A128A1530
:101EA60096250A128A15831203133008B9003108E1
:101EB600BA000030BA1BFF30BB00BC0001300A126A
:101EC6008A1141200A128A15831203133C08EC007A
:101ED6003B08EB003A08EA003908E9006408AF005D
:101EE6006308AE006208AD006108AC006C08AB0088
:101EF6006B08AA006A08A9006908A8000A128A15D0
:101F06003C240A128A15831203132B08CE002A08D2
:101F1600CD002908CC002808CB004230CA00C830C2
:101F2600C9000030C8000030C7000A128A119B247D
:101F36000A128A15831203134A08B3004908B2002D
:101F46004808B1004708B0000A128A1596250A12F9
:101F56008A15831203133008B9003108BA0000301D
:101F6600BA1BFF30BB00BC0001300A128A114120A7
:101F76000A128A15831203133C08E8003B08E7009F
:101F86003A08E6003908E5006C08B3006B08B200B1
:101F96006A08B1006908B0000A128A1596250A1265
:101FA6008A15831203133108BA003008B9000A12E1
:101FB6008A1512260A128A152E300A128A11032051
:101FC6000A128A15831203136808B3006708B20061
:101FD6006608B1006508B0000A128A1596250A122D
:101FE6008A15831203133108BA003008B9000A12A1
:0A1FF6008A1512260A128A15080047
:00000001FF
